:100000000C94F8000C9415010C9415010C94150136
:100010000C9415010C9415010C9415010C94150108
:100020000C9415010C9415010C9415010C947D127F
:100030000C9476140C9415010C9415010C94150174
:100040000C9435120C9415010C94FA150C94D215DD
:100050000C9415010C9415010C9415010C941501C8
:100060000C9415010C94150173746172740A6F6B12
:100070000A00FC890200FC89020000E204000F78FB
:10008000010051756575653A2025642F2564256347
:100090000A00453A20426164204D2D636F6465205B
:1000A00025640A004649524D574152455F4E414D25
:1000B000453A535052494E5445522D4669726D7718
:1000C0006172650A4649524D574152455F55524C3F
:1000D0003A687474703A2F2F6769746875622E637A
:1000E0006F6D2F426565636C7573742D4D52534C63
:1000F0002F535052494E5445522D4669726D7761C7
:1001000072650A50524F544F434F4C5F56455253FD
:10011000494F4E3A312E30200A4D414348494E4511
:100120005F545950453A20535052494E544552203D
:1001300056352E300A00583A256C712C593A256CE8
:10014000712C5A3A256C712C453A256C712C463A23
:10015000256C750A000A73746F700A00453A2042D4
:10016000616420472D636F64652025640A00727303
:10017000204E256C64204578706563746564206347
:100180006865636B73756D2025640A006F6B0A00E8
:100190000A0000000A00000014000000C80000006F
:1001A000B0010000B0010000E1000000EB0200001F
:1001B000D2760800D2760800801A0600B4200B0020
:1001C0007017000070170000C800000070170000D2
:1001D000000000000000000000000000000000001F
:1001E000FC890200FC89020000E204000F78010093
:1001F00011241FBECFEFD8E0DEBFCDBF11E0A0E0DD
:10020000B1E0EEEFFBE302C005900D92A832B1071A
:10021000D9F725E0A8E2B1E001C01D92AF34B207E2
:10022000E1F70E9423160C94C71D0C940000462F82
:10023000572FBC01F89480918800909189004093D9
:100240004B0550934C0560934D0570934E05411539
:10025000510521E06207710568F4480F591F50935A
:1002600089004093880080916F00826080936F00C6
:1002700080E00895403127E2520721E062077105CE
:1002800098F4805197429093890080938800405F52
:10029000584D6F4F7F4F40934B0550934C056093E3
:1002A0004D0570934E05DFCF9093890080938800B1
:1002B000DACF0FB607FE19C020912F0590912E05B9
:1002C000291B330B215031092F733327232BA1F323
:1002D000E0912E05F0E0E251FB4F808380912E05E6
:1002E0008F5F8F7380932E050CC020912F05909106
:1002F0002E05291B330B215031092F733327232B54
:1003000039F78091C10080628093C1000895CF9336
:10031000C82F82958F70C03A60F4805D0E945901A9
:100320008C2F8F708A3038F4805D0E945901CF91F4
:100330000895895CF3CF895CF8CFCF93C82F892FBC
:100340000E9487018C2F0E948701CF910895CF9240
:10035000DF92EF92FF92CF93DF936B017C01E8E293
:10036000F1E089E0C82F8FEF8C0F7291629152916A
:100370004291C416D506E606F70618F48111F2CFAD
:10038000C0E084E0C89FE0011124CC5FDE4F7A9189
:100390006A915A914A9180E0C416D506E606F7069E
:1003A00070F4805D0E94590181E0C030D80779F770
:1003B000DF91CF91FF90EF90DF90CF900895C41A16
:1003C000D50AE60AF70A8F5FE7CFCF92DF92EF9266
:1003D000FF926B017C01F7FE0BC08DE20E94590178
:1003E000F094E094D094C094C11CD11CE11CF11C89
:1003F000C701B6010E94A701FF90EF90DF90CF9058
:100400000895A5E0B0E0E7E0F2E00C949A1D482FD3
:10041000392FC0906501D0906601E0906701F0909F
:100420006801009169010D83E02FEF7759F0E150E9
:1004300049F0842F932F6AE070E00E94131D892BEE
:1004400009F446C0A42FB32FA70196010E947D1D79
:1004500069837A838B839C83EE2301F114E0E19F0F
:10046000F0011124E050FF4F2081318142815381FE
:10047000DA01C901B695A79597958795E980FA8025
:100480000B811C81E80EF91E0A1F1B1FC801B70152
:100490000E94271D29833A834B835C83FD80F7FEEE
:1004A0000FC089819A81AB81BC81B095A095909550
:1004B00081959F4FAF4FBF4F89839A83AB83BC8396
:1004C00069817A818B819C812596E8E00C94B61D28
:1004D000462F372FACCFA4E0B0E0E1E7F2E00C9478
:1004E000A01D3FB7F89480913E0590913F05A091E3
:1004F0004005B091410526B5A89B05C0222319F0FF
:100500000196A11DB11D3FBFBA2FA92F982F882793
:10051000820F911DA11DB11D9C01AD0162E0220F52
:10052000331F441F551F6A95D1F7CA01B90124969C
:10053000E2E00C94BC1D1F93CF93DF93EC01E0E04D
:1005400011E01E0FEC0FFD2FF11D8491811104C0ED
:10055000DF91CF911F9108950E945901E12FF0CFB3
:100560000397E2E0F0E03197F1F7813020E4920761
:1005700048F4009731F0880F991F880F991F019751
:10058000F1F70895EDEFFFEF3197F1F79054EDCFCC
:1005900020914A05273058F430E02F5F3F4F90916B
:1005A000470581E09217130609F080E0089530E0D6
:1005B00020E0F5CF8F929F92AF92BF92CF92DF92C1
:1005C000EF92FF92CF93DF9300D000D000D00F9234
:1005D000CDB7DEB7BC018FEF9FEF0E94131D6B01FB
:1005E000F12CE12C88249C2CAD2CBE2CE8E0F0E012
:1005F00050E840E0842F852B8D83282F30E0D901EF
:100600000E946E1DC616D706E806F906E0F5852F8E
:10061000809548235695319769F790E1499FA0014D
:100620001124A4E0B0E0BF83AE83E8E0F0E07A01FB
:10063000EE2AFF2A9701D7010E946E1D86169706A3
:10064000A806B90610F5CF01809590954823592347
:10065000F695E7958E819F8101979F838E83892BE5
:1006600031F7CA0127960FB6F894DEBF0FBECDBF93
:10067000DF91CF91FF90EF90DF90CF90BF90AF9040
:100680009F908F9008954D81C5CFA701E1CFA8E03D
:10069000B0E0EDE4F3E00C94921D2B013C012983C2
:1006A0003A834B835C83902F812F8701292F382F2A
:1006B000AD82BE82CF82D886E0E077FE09C070941A
:1006C000609450944094411C511C611C711CE1E0E9
:1006D000C12CD12C760180E090E0DC014DC040FEC1
:1006E0001CC089809A80AB80BC80880D991DAA1D92
:1006F000BB1DC00ED11EE21EF31E4D815E816F81B7
:100700007885C416D506E606F70638F00196A11DD1
:10071000B11DC41AD50AE60AF70A7594679457946E
:10072000479489809A80AB80BC80880C991CAA1C55
:10073000BB1C89829A82AB82BC82000F111F221FD0
:10074000331F4D815E816F81788504171507260759
:10075000370790F0B501A4014F5F5F4F6F4F7F4F98
:1007600049835A836B837C838D809E80AF80B8845D
:10077000081919092A093B0941145104610471043B
:1007800009F0ADCF4D815E816F8178857695679553
:10079000579547954C155D056E057F0518F4019634
:1007A000A11DB11D89839A83AB83BC83EE2359F0CD
:1007B000B095A095909581959F4FAF4FBF4F89837E
:1007C0009A83AB83BC8369817A818B819C812896D3
:1007D000E0E10C94AE1DA6E1B0E0E1EFF3E00C9493
:1007E000961D4C0169877A87E0EEF1E0859195913D
:1007F000A591B49189839A83AB83BC83E0EDF1E04A
:100800002591359145915491D4018D919D910D90F3
:10081000BC91A02D8D839E83AF83B88760E4A62E04
:1008200062E4B62E6FE0C62ED12CE980FA800B81EF
:100830001C81BC01CD010E9447036B877C878D879B
:100840009E87E985FA856083718382839383E4EED2
:10085000F1E085919591A591B49189839A83AB83B9
:10086000BC83E4EDF1E02591359145915491D4019B
:1008700014968D919D910D90BC91A02D8D839E839A
:10088000AF83B887E980FA800B811C81BC01CD0160
:100890000E9447036F87788B898B9A8BE985FA854D
:1008A0006483758386839783E8EEF1E08591959163
:1008B000A591B49189839A83AB83BC83E8EDF1E081
:1008C0002591359145915491D40118968D919D9122
:1008D0000D90BC91A02D8D839E83AF83B887E98056
:1008E000FA800B811C81BC01CD010E944703E98580
:1008F000FA8560877187828793876696ECE00C940F
:10090000B21DFC01611105C0818D83FF07C081E02C
:100910000895613029F4818D84FDF9CF8FEF08951A
:10092000623021F4818D85FFF9CFF1CF6330B1F7CB
:10093000818D86FFF3CFEBCF80913405811109C003
:10094000089510923005809130058111FACF1092F0
:100950003205809132058111F6CF10923405ECCF2B
:100960008091480590914905892B09F408950E94CA
:100970009C04F6CFA4E0B0E0E0ECF4E00C94A01D01
:1009800089839A8310924205A981BA8159968C91E4
:1009900083FF59C05A9AE981FA81818D84FF55C03D
:1009A0005C9AE981FA8183A594A5A5A5B6A5B6951B
:1009B000A79597958795B095A095909581959F4F10
:1009C000AF4FBF4F80934D0190934E01A0934F01C5
:1009D000B09350018093490190934A01A0934B0139
:1009E000B0934C018093450190934601A093470139
:1009F000B09348018093410190934201A093430139
:100A0000B0934401109261017B9680E1A1E5B1E0D1
:100A100001900D928A95E1F7A981BA8159968C913E
:100A20005997826059968C935997D3968D919D9141
:100A30000D90BC91A02DBC01CD010E941701249600
:100A4000E2E00C94BC1D5A98A6CF5C98AACFAEE702
:100A5000B0E0EDE2F5E00C94901D0E94C802A29671
:100A60008FAFA29781113BC380914A05873008F070
:100A70003BC38F5FEA968FAFEA97EA964FACEA974F
:100A8000242C312C0BE5409E700111249701255335
:100A90003E4FA7963FAF2EAFA797D9015A961C920B
:100AA0001E925997F901E75AFF4F10823196108232
:100AB000E0914505F0914605309739F0818D82FF30
:100AC00004C0109246051092450589E1EFEAF1E075
:100AD000A796AEADBFADA79701900D928A95E1F7AD
:100AE0008BE5829DF001839DF00D1124E553FE4FAF
:100AF000668977896115B1E07B07E1F0CF01875AFC
:100B00009F4FDC018C91811115C020893189428968
:100B10005389DB010E947D1DDC01CB0180589F4F72
:100B2000AF4FBF4F892F9A2FAB2FBB27808B918B55
:100B3000A28BB38B2BE5229DC001239D900D112428
:100B4000FC01EA5EFD4F1082118212821382FC01C9
:100B5000E65EFD4F1082118212821382FC01E25E7A
:100B6000FD4F10821182128213822091440531E0E0
:100B7000320F309344058E5D9D4FFC0120834090E1
:100B8000AF015090B0016090B1017090B201AF968A
:100B90004CAE5DAE6EAE7FAEAF976090830170904D
:100BA000840180908501909086016D966CAE7DAE3B
:100BB0008EAE9FAE6D97AF96ACACBDACCEACDFAC9D
:100BC000AF97A618B708C808D9082D96ACAEBDAE29
:100BD000CEAEDFAE2D97D7FE0EC0D094C094B094A9
:100BE000A094A11CB11CC11CD11C2D96ACAEBDAEF5
:100BF000CEAEDFAE2D972D964CAC5DAC6EAC7FAC1F
:100C00002D9749AA5AAA6BAA7CAA8090B30190900A
:100C1000B401A090B501B090B601E3968CAE9DAE44
:100C2000AEAEBFAEE3978090870190908801A09010
:100C30008901B0908A01A1968CAE9DAEAEAEBFAEDA
:100C4000A197E3960CAD1DAD2EAD3FADE39708190E
:100C500019092A093B0969960CAF1DAF2EAF3FAFAA
:100C6000699737FF0DC030952095109501951F4F5E
:100C70002F4F3F4F69960CAF1DAF2EAF3FAF699717
:100C800069968CAC9DACAEACBFAC699725968CAE2A
:100C90009DAEAEAEBFAE25978DAA9EAAAFAAB8AE46
:100CA0008090B7019090B801A090B901B090BA01BE
:100CB000E7968CAE9DAEAEAEBFAEE79780908B014F
:100CC00090908C01A0908D01B0908E01EE968CAE2C
:100CD0009DAEAEAEBFAEEE97E7960CAD1DAD2EADA0
:100CE0003FADE797081919092A093B0965960CAF2A
:100CF0001DAF2EAF3FAF659737FF0DC030952095E4
:100D0000109501951F4F2F4F3F4F65960CAF1DAFAC
:100D10002EAF3FAF659765968CAC9DACAEACBFACCB
:100D2000659729968CAE9DAEAEAEBFAE299789AEC3
:100D30009AAEABAEBCAEBE016F5D7F4F8FEA91E065
:100D40000E94EB038E010F5D1F4F2AE631E02F96C4
:100D50003FAF2EAF2F97A7014A515E4FE9965FAF85
:100D60004EAFE9979A0140E0D801CD90DD90ED902B
:100D7000FD908D012F96EEADFFAD2F978191919152
:100D8000A191B1912F96FFAFEEAF2F97460157017A
:100D9000881A990AAA0ABB0AD501C401B7FF07C07D
:100DA000882499245401881A990AAA0ABB0AF901CD
:100DB00081929192A192B1929F012F966EAD7FADDB
:100DC0002F9764507109FB01C082D182E282F382C5
:100DD00080959095A095B0958827B7FD8395992724
:100DE000AA27BB275BE5529DB001539D700D1124CE
:100DF0006C517E4FFB01508141117AC180FB53F948
:100E000050834F5F433009F0AFCF8090BB0190908B
:100E1000BC01A090BD01B090BE0161968CAE9DAEAC
:100E2000AEAEBFAE6197ECEEF1E0A590B590C59087
:100E3000D490AB96ACAEBDAECEAEDFAEAB97ECED24
:100E4000F1E02591359145915491B0E4AB2EB2E497
:100E5000BB2EBFE0CB2ED12CAB96ECACFDAC0EADD7
:100E60001FADAB9761966CAD7DAD8EAD9FAD6197BB
:100E70000E9447039B01AC016DA73EA78FA758AB0B
:100E8000A091C301B091C401A11501E0B007B1F078
:100E90000E947D1D60587F4F8F4F9F4FAB966CAF68
:100EA0007DAF8EAF9FAFAB9720E031E040E050E0E8
:100EB0000E94491D2DA73EA74FA758AB8DA59EA503
:100EC000AFA5B8A92091C70120FD1AC140918F019B
:100ED00050919001609191017091920161968CAC5A
:100EE0009DACAEACBFAC6197841A950AA60AB70A4E
:100EF000B501A40177FF07C07095609550954195A5
:100F00005F4F6F4F7F4F21964CAF5DAF6EAF7FAF9E
:100F1000219740917601509177016091780170910D
:100F200079015C016D01A41AB50AC60AD70AB60197
:100F3000A5012BE5229DF001239DF00D1124E55321
:100F4000FE4F8501960177FF07C000271127980102
:100F5000041B150B260B370B07A310A721A732A7DD
:100F60008093760190937701A0937801B0937901F3
:100F70008BE5829DF001839DF00D1124EC51FE4F15
:100F80004095509560957095442777FD439555277A
:100F900066277727808140FB86F98083A796AEADD0
:100FA000BFADA7978E010F5C1F4F980180E088238B
:100FB000B9F09BE5929DF001939DF00D1124E5534E
:100FC000FE4F5B96CD90DD90ED90FC905E9743A533
:100FD00054A565A576A54C155D056E057F0508F53C
:100FE0005B964D915D916D917C915E979BE5929D95
:100FF0007001939DF00C1124F701E553FE4F7F0122
:1010000043A754A765A776A7F90140815181628162
:101010007381F70147A750AB61AB72ABE85AFF4F42
:1010200080838F5F14962C5F3F4F843009F0BFCFD1
:101030008BE5829DF001839DF00D1124DF01A55306
:10104000BE4F9B968D909D90AD90BC909E97619663
:101050008CAE9DAEAEAEBFAE619781149104A1047B
:10106000B10409F094C0EC51FE4F8081816080830F
:1010700050968D919D910D90BC91A02D80939301E0
:1010800090939401A0939501B09396018BE5829D76
:10109000F001839DF00D1124E553FE4F818D80FDFD
:1010A00019C0EA965FACEA9750924A0580914805CC
:1010B00090914905892B71F450924705A7966EAC23
:1010C0007FACA7977092490560924805C3010E94C2
:1010D000BA047894C258DF4FE2E10C94AC1D84E668
:1010E00090E00E94B002B9CCEA961FAEEA97C5CC58
:1010F000413019F480FB54F983CE80FB55F980CE42
:1011000061964CAD5DAD6EAD7FAD619777FF07C069
:1011100070956095509541955F4F6F4F7F4F219629
:101120004CAF5DAF6EAF7FAF21972BE5229DF001F5
:10113000239DF00D1124E553FE4FB7FF07C0B09576
:10114000A095909581959F4FAF4FBF4F87A390A7D4
:10115000A1A7B2A78BE5829DF001839DF00D11241C
:10116000EC51FE4F61968CAD9DADAEADBFAD6197BC
:1011700080959095A095B0958827B7FD8395992780
:10118000AA27BB27208180FB26F9208307CF8091E7
:101190004305811103C081E080934305109242050D
:1011A000E7968CAC9DACAEACBFACE797EE96CCAC02
:1011B000DDACEEACFFACEE978C149D04AE04BF0426
:1011C00009F024C6AF968CAC9DACAEACBFACAF976B
:1011D0006D96CCACDDACEEACFFAC6D978C149D0481
:1011E000AE04BF0491F0E3968CAC9DACAEACBFAC4A
:1011F000E397A196CCACDDACEEACFFACA1978C1420
:101200009D04AE04BF0409F09EC52D964CAC5DACA8
:101210006EAC7FAC2D9769968CAC9DACAEACBFAC80
:101220006997480C591C6A1C7B1C29964CAE5DAE14
:101230006EAE7FAE299729966CAC7DAC8EAC9FAC20
:10124000299767286828692861F421968CAC9DACA1
:10125000AEACBFAC219729968CAE9DAEAEAEBFAE04
:101260002997A0E6B9E029962CAD3DAD4EAD5FAD16
:1012700029970E947D1D61962CAD3DAD4EAD5FADB1
:1012800061970E94271DA0E9B1E00E947D1D25966F
:101290006CAF7DAF8EAF9FAF2597E0ECCE2EE1E037
:1012A000DE2E780120E1E20EF11C412C512C32019E
:1012B000D8012D913D914D915D918D01F601859063
:1012C0009590A590B490A0E6B9E00E947D1D61962E
:1012D0002CAD3DAD4EAD5FAD61970E94271DA0E9DD
:1012E000B1E00E947D1D2D966CAF7DAF8EAF9FAF9C
:1012F0002D97A50194010E94271D421653066406EE
:10130000750610F429013A01B4E0CB0ED11CE016A9
:10131000F10671F68BE5829D8001839D100D1124ED
:1013200005531E4FF801208931894289538925963A
:101330006CAD7DAD8EAD9FAD25970E94271DF80148
:10134000ED5BFF4F241535054605570508F460C6CB
:1013500020833183428353838BE5829DF001839DFB
:10136000F00D1124E553FE4F80899189A289B3893C
:101370000097A140B10540F08FEF9FEFA0E0B0E0F3
:10138000808B918BA28BB38B2BE5229DC001239D7B
:10139000900D11249C0125533E4F4901D9015096CF
:1013A0004C90509751965C90519752966C905297F2
:1013B00053967C90B201C30129962CAD3DAD4EAD44
:1013C0005FAD29970E94271D25966CAF7DAF8EAF2C
:1013D0009FAF2597D4019F96AD90BD90CD90DC90A6
:1013E000D2972D96ACAEBDAECEAEDFAE2D97299680
:1013F000ACACBDACCEACDFAC29977B018C012D969B
:101400006CAD7DAD8EAD9FAD2D970E944703F4016D
:10141000E85AFF4FE081B4E0EB9FF0011124E05661
:10142000FE4FC590D590E590F4909B01AC010E94D1
:10143000031D25966CAF7DAF8EAF9FAF2597A7019B
:1014400096010E94271D61968CAD9DADAEADBFADDE
:101450006197B695A79597958795F401821793079D
:10146000A407B50708F4EAC523AF34AF45AF56AFBC
:101470008BE5829DF001839DF00D1124E553FE4F15
:10148000DF01DF9643AD54AD65AD76AD61968CACB2
:101490009DACAEACBFAC6197841A950AA60AB70A98
:1014A000B501A4014D935D936D937C931397E95B14
:1014B000FF4F29968CAC9DACAEACBFAC2997808217
:1014C0009182A282B382809045059090460527962E
:1014D0009FAE8EAE27978114910409F4CAC3F4011C
:1014E00080899189A289B38922964FAE229723964B
:1014F0005FAE239724966FAE249725967FAE2597EF
:1015000025964CAC5DAC6EAC7FAC259784159505EB
:10151000A605B70530F425968CAF9DAFAEAFBFAF33
:1015200025972796AEADBFAD27979B964D905D90C2
:101530006D907C909E9725966CAD7DAD8EAD9FADE8
:101540002597A30192010E94271DA1962CAF3DAFC4
:101550004EAF5FAFA197AB966CAF7DAF8EAF9FAF35
:10156000AB972796EEADFFAD27977B962B96FFAFF7
:10157000EEAF2B974E01F1E18F0E911C8E010F5FA4
:101580001F4F67961FAF0EAF679727962EAD3FADE3
:101590002797255D3F4FE1963FAF2EAFE1976396CA
:1015A0001FAF0EAF6397AD969FAE8EAEAD972B96E5
:1015B000AEADBFAD2B974D915D916D917D912B9609
:1015C000BFAFAEAF2B976D964CAF5DAF6EAF7FAF39
:1015D0006D9763015201AB96ECACFDAC0EAD1FAD47
:1015E000AB97A1962CAD3DAD4EAD5FADA1976D967D
:1015F0006CAD7DAD8EAD9FAD6D970E944703AD96EE
:10160000EEADFFADAD976193719381939193AD96DC
:10161000FFAFEEAFAD97E996AEADBFADE997AD9038
:10162000BD90CD90DD90E996BFAFAEAFE9976D96D6
:10163000ACAEBDAECEAEDFAE6D9725966CAD7DADDA
:101640008EAD9FAD259761962CAD3DAD4EAD5FAD96
:1016500061970E94271DE7966CAF7DAF8EAF9FAF5D
:10166000E7976196ACACBDACCEACDFAC61977B01CB
:101670008C016D966CAD7DAD8EAD9FAD6D970E946A
:1016800047036396EEADFFAD6397619371938193CA
:1016900091936396FFAFEEAF6397E196AEACBFACAC
:1016A000E1972B96CEACDFAC2B97AC14BD0409F0C0
:1016B0007ECF00E911E020E032E040E050E02D96DE
:1016C0002CAF3DAF4EAF5FAF2D97A2966FADA297F7
:1016D00027968EAD9FAD27970E948104F82EA29683
:1016E0006FADA297A7968EAD9FADA7970E9481047C
:1016F0006796AEADBFAD67974D915D916D917D9150
:101700006796BFAFAEAF6797F4014190519061907B
:1017100071904F01F812A0C444165506660677066C
:101720000CF091C444195509660977099A01AB0177
:10173000211531054105510521F1F801859195915A
:10174000A591B491CC24D82EE92EFA2E6596CCAE74
:10175000DDAEEEAEFFAE6597C701B6010E94271D54
:101760002D966CAD7DAD8EAD9FAD2D9726173707AD
:101770004807590730F42D962CAF3DAF4EAF5FAF01
:101780002D97A2967FADA2977F5FA2967FAFA2977B
:101790000C5F1F4F743009F098CF2D968CAD9DAD26
:1017A000AEADBFAD2D978F3F9105A105B10509F0F5
:1017B00008F459C48BE5829DF001839DF00D11243E
:1017C000EA5EFD4F25964CAC5DAC6EAC7FAC2597C8
:1017D00040825182628273822BE5229DC001239D4B
:1017E000900D11248C0105531E4F48019C012A5E67
:1017F0003D4F2F963FAF2EAF2F97F90180819181FA
:10180000A281B381892B8A2B8B2B09F432C22796B4
:10181000AEADBFAD279759968C91599781FD29C2DE
:101820008FB7F894FD01E95AFF4F4080EB964FAE19
:10183000EB97F401E95AFF4F5080EF965FAEEF97B8
:101840008FBFFD01E15BFF4F40805180628073805C
:1018500025964CAE5DAE6EAE7FAE25972796AEADAB
:10186000BFAD27979B964D905D906D907C909E9715
:1018700069964CAE5DAE6EAE7FAE6997D4019B9615
:101880004D905D906D907C909E972D964CAE5DAE88
:101890006EAE7FAE2D972796EEADFFAD2797E95B35
:1018A000FF4FA080B180C280D3802796AEADBFAD80
:1018B000279750964D905D906D907C905397C30103
:1018C000B201A60195010E94271D65966CAF7DAF00
:1018D0008EAF9FAF65972796AEADBFAD27979F960A
:1018E0004D905D906D907C90D297A5964CAE5DAE7C
:1018F0006EAE7FAEA5977B018C01C301B2010E9441
:101900004703A2966FAFA297AC967FAFAC976A964B
:101910008FAF6A97E0969FAFE097F401E95BFF4FC6
:101920004080518062807380D4019F96AD90BD90BD
:10193000CD90DC90D2976596ACAEBDAECEAEDFAEAC
:1019400065975096AD90BD90CD90DC905397C601B1
:10195000B501A30192010E94271DA1966CAF7DAF36
:101960008EAF9FAFA197630152017B018C016596F9
:101970006CAD7DAD8EAD9FAD65970E9447036E96B1
:101980006FAF6E97E8967FAFE897A8968FAFA8974E
:10199000E4969FAFE4972F96AEADBFAD2F97AD9075
:1019A000BD90CD90DC90C601B501A30192010E94CB
:1019B000271D61966CAF7DAF8EAF9FAF61976301BE
:1019C00052017B018C0165966CAD7DAD8EAD9FADF6
:1019D00065970E944703F401E85AFF4F2081B4E065
:1019E0002B9F9001112420563E4FF90145905590B0
:1019F00065907490F90185909590A590B490659646
:101A00008CAE9DAEAEAEBFAE6597F9018590959058
:101A1000A590B4902596CCACDDACEEACFFAC259790
:101A200069960CAD1DAD2EAD3FAD6997C00ED11EB0
:101A3000E21EF31E9B01AC010E94031D61966CAF78
:101A40007DAF8EAF9FAF6197A50194010E94271DC6
:101A50002D968CAD9DADAEADBFAD2D97C816D906F8
:101A6000EA06FB0610F4D701C60149015A018815A0
:101A70009905AA05BB0510F44C015D018114910480
:101A8000A104B10409F4F5C0A2962FADA297AC96BB
:101A90003FADAC976A964FAD6A97E0965FADE09721
:101AA000B901CA010E94031D61966CAF7DAF8EAF74
:101AB0009FAF6197A30192010E94271D8216930692
:101AC000A406B50609F0F4C22401350125962CAD13
:101AD0003DAD4EAD5FAD2597421A530A640A750AB3
:101AE000C12CD12C76016E962FAD6E97E8963FAD46
:101AF000E897A8964FADA897E4965FADE497B90133
:101B0000CA010E94031D65962CAD3DAD4EAD5FAD83
:101B100065970E94271D25962CAF3DAF4EAF5FAF56
:101B2000259782169306A406B50609F435C32D96AB
:101B30008CAD9DADAEADBFAD2D9788199909AA09A1
:101B4000BB09B695A7959795879589019A010819BC
:101B500019092A093B0980179107A207B30710F456
:101B60008C019D01D501C401800F911FA21FB31FDD
:101B700025968CAF9DAFAEAFBFAF25976FB7F894EA
:101B80002796AEADBFAD279759968C91599781FD99
:101B90006FC0FD01E95AFF4F8081EB96BFADEB9717
:101BA000B81366C07BE5729DC001739D900D112432
:101BB000FC01EC51FE4F708171FD5AC0FC01E553F0
:101BC000FE4F8E5D9D4FDC018C91EF96BFADEF9780
:101BD000B8134EC02796AEADBFAD2797AD5ABF4FD5
:101BE0008D929D92AD92BC9213972796AEADBFADEC
:101BF0002797DB964D925D926D927C92DE97DF96F1
:101C000069964CAC5DAC6EAC7FAC69974C185D08C6
:101C10006E087F0873016201CD92DD92ED92FC9215
:101C2000139703AF14AF25AF36AFDF01DF962D96C4
:101C30000CAD1DAD2EAD3FAD2D972596CCACDDACDA
:101C4000EEACFFAC25970C191D092E093F090D9329
:101C50001D932D933C93139754961D921D921D92A4
:101C60001C921397E15BFF4F80829182A282B38224
:101C70006FBF2BE5229DC001239D900D11248C0187
:101C800005531E4F865E9D4FFC0180819181A2818C
:101C9000B381F80187AB90AFA1AFB2AFE85AFF4F65
:101CA000E08124E0E29FF0011124E055FE4F00970F
:101CB000A105B10509F074C285919591A591B491E2
:101CC000F80183AB94ABA5ABB6AB2BE5229DC0016D
:101CD000239D900D11249C0125533E4F825F9D4F03
:101CE000FC0180819181A281B381F90143A954A9AA
:101CF00065A976A9481759076A077B0720F483ABC3
:101D000094ABA5ABB6AB89E1A796EEADFFADA797B7
:101D1000A3E8B1E001900D928A95E1F780919B01D3
:101D200080FF08C010928F011092900110929101D3
:101D300010929201A7964EAC5FACA79750924605C1
:101D400040924505A3C92D968CAC9DACAEACBFAC02
:101D50002D976996CCACDDACEEACFFAC69978C14DA
:101D60009D04AE04BF0440F02601370125968CAED9
:101D70009DAEAEAEBFAE2597AFEEB3E025962CADCF
:101D80003DAD4EAD5FAD25970E947D1D29966CAF90
:101D90007DAF8EAF9FAF2997A9EBB1E0A301920170
:101DA0000E947D1D2996CCACDDACEEACFFAC299732
:101DB000C60ED71EE81EF91E34E0440C551C661CE6
:101DC000771C3A95D1F725968CAC9DACAEACBFACE8
:101DD000259784149504A604B70450F4A8E2B0E053
:101DE000A50194010E947D1DC61AD70AE80AF90AC6
:101DF00022E0D20EE11CF11C26013701FAE07694B4
:101E0000679457944794FA95D1F70FCAAF968CAC64
:101E10009DACAEACBFACAF976D96CCACDDACEEACD0
:101E2000FFAC6D978C149D04AE04BF0409F0B0C0E4
:101E3000E3968CAC9DACAEACBFACE397A196CCACBA
:101E4000DDACEEACFFACA1978C149D04AE04BF04D6
:101E500009F407CA65968CAC9DACAEACBFAC659777
:101E60002596CCACDDACEEACFFAC25978C149D0474
:101E7000AE04BF0408F4A7C084149504A604B704F4
:101E800040F029964CAE5DAE6EAE7FAE2997240130
:101E90003501ACE5B3E0A30192010E947D1D2D96B2
:101EA0006CAF7DAF8EAF9FAF2D97A3E5B3E02996C2
:101EB0002CAD3DAD4EAD5FAD29970E947D1D2D9699
:101EC0008CAC9DACAEACBFAC2D97860E971EA81EF9
:101ED000B91EA8E0B2E025962CAD3DAD4EAD5FAD8C
:101EE00025970E947D1D860E971EA81EB91E299655
:101EF0008CAD9DADAEADBFAD2997880F991FAA1FC0
:101F0000BB1F481659066A067B0650F4A6E2B1E0EC
:101F1000A30192010E947D1D861A970AA80AB90A98
:101F20002596CCACDDACEEACFFAC2597A2E0CC0C9A
:101F3000DD1CEE1CFF1CAA95D1F74C145D046E0449
:101F40007F0450F4A1E7B0E0A30192010E947D1D3F
:101F5000861A970AA80AB90A29964CAC5DAC6EACF1
:101F60007FAC29974C145D046E047F0450F4A8E202
:101F7000B0E0A30192010E947D1D861A970AA80A6B
:101F8000B90A22E0920EA11CB11C2401350136CF02
:101F90002D968CAC9DACAEACBFAC2D976996CCACFD
:101FA000DDACEEACFFAC69978C149D04AE04BF04AD
:101FB00008F450CF25968CAE9DAEAEAEBFAE259741
:101FC0002601370147CF22963FAD229723962FADAA
:101FD000239724969FAD249725968FAD25976596D8
:101FE0008CAC9DACAEACBFAC659725968CAE9DAE6F
:101FF000AEAEBFAE259726963FAF269727962FAF5A
:10200000279728969FAF289729968FAF299741CF7A
:10201000408251826282738225966CAD7DAD8EAD19
:102020009FAD2597A30192010E94271DD8015096CC
:102030002D933D934D935C9353978EC983AF94AF8B
:10204000A5AFB6AF15CA63015201A41AB50AC60AF4
:10205000D70AB601A5016ACB9A01AB01240D351D43
:10206000461D571D65CB8BE5829DF001839DF00DCC
:102070001124EA5EFD4F25962CAD3DAD4EAD5FAD12
:1020800025972D966CAD7DAD8EAD9FAD2D970E94A1
:10209000031D25966CAF7DAF8EAF9FAF2597BB27F5
:1020A000A92F982F872F80839183A283B38394CB0A
:1020B00025964CAC5DAC6EAC7FAC25978414950432
:1020C000A604B70408F040C0481859086A087B08FD
:1020D00061964CAE5DAE6EAE7FAE619769968CAD8B
:1020E0009DADAEADBFAD699725964CAC5DAC6EAC09
:1020F0007FAC259784199509A609B709880D991D04
:10210000AA1DBB1DB695A7959795879529013A01FC
:102110002596CCACDDACEEACFFAC25974C185D0839
:102120006E087F0884159505A605B70510F42C01E7
:102130003D016196CCACDDACEEACFFAC6197C40C5C
:10214000D51CE61CF71CCFCC2401350125966CADBF
:102150007DAD8EAD9FAD2597461A570A680A790A5C
:10216000D701C60188199909AA09BB09B695A7958F
:102170009795879569017A01C818D908EA08FB087C
:102180008C159D05AE05BF0510F46C017D014C0C4E
:102190005D1C6E1C7F1CA7CC00E010E09801EECC0B
:1021A000C590D590E590F4900E94DA02DC01A70179
:1021B00096010E947D1D29966CAF7DAF8EAF9FAFBB
:1021C0002997DC01CB012DE0B695A79597958795CA
:1021D0002A95D1F775CD4F925F926F927F92AF9211
:1021E000BF92CF92DF92EF92FF920F931F93CF9304
:1021F000DF9300D000D0CDB7DEB78E01075E1F4F52
:10220000AF88B88CF12CF5018491811113C00F9027
:102210000F900F900F90DF91CF911F910F91FF9032
:10222000EF90DF90CF90BF90AF907F906F905F90D6
:102230004F900895FF2009F410C1813709F4BBC005
:1022400068F4843609F44FC094E0F92E8C3679F0A6
:10225000833609F480C00E94590136C0853759F091
:10226000883709F481C0FF24F3948337A1F7FFEF87
:10227000AF1ABF0AC8CF21E0F21214C0780132E0D1
:10228000E30EF11CD8018C91282F30E050E040E0A3
:1022900029833A834B835C83CA01B9010E94A70159
:1022A000870112C032E0F31211C0D8018D919D91C7
:1022B0008D019C0150E040E029833A834B835C838D
:1022C000CA01B9010E94A701F12CD1CFF801819177
:1022D0009191A191B1918F0189839A83AB83BC8342
:1022E000BC01CD01EFCFF1E0FF1214C0780122E074
:1022F000E20EF11CD8018C91282F880F330B440B70
:10230000550B29833A834B835C83CA01B9010E9430
:10231000E501C6CF32E0F31211C0D8018D919D9135
:102320008D019C01990F440B550B29833A834B83F4
:102330005C83CA01B9010E94E501C6CFF801819111
:102340009191A191B1918F0189839A83AB83BC83D1
:10235000BC01CD01F0CF7801F2E0EF0EF11CD80105
:102360008C910E9459019CCF80E30E94590188E71B
:102370000E945901B1E0FB1209C07801E2E0EE0EC3
:10238000F11CD8018C910E9487018ACFB2E0FB1228
:1023900007C0F801819191918F010E949D0194CF16
:1023A000D801CD90DD90ED90FD908D01C7010E9488
:1023B0009D01C601F2CFF801C080D180E280F38098
:1023C0000C5F1F4FF7FE0BC08DE20E945901F09485
:1023D000E094D094C094C11CD11CE11CF11C2601D6
:1023E0003701E8E2F1E089E0729162915291429105
:1023F000C416D506E606F70610F48150A9F7F82EA4
:10240000B3E08B1710F423E0F22EE4E0FE9EC0014F
:1024100011249C012C5F3E4F6901D6017E916E9183
:102420005E914E916D0180E0441655066606770672
:1024300070F4805D0E945901B3E0FB1203C08EE28C
:102440000E945901FA94EFEFFE12E7CF3DCF441AF4
:10245000550A660A770A8F5FE7CF853219F00E9426
:10246000590105CF82E0F82E02CF1F921FB61F92AE
:1024700011242F933F938F939F93AF93BF9380919A
:102480003A0590913B05A0913C05B0913D053091F6
:10249000390523E0230F2D3750F50196A11DB11DFD
:1024A0002093390580933A0590933B05A0933C0512
:1024B000B0933D0580913E0590913F05A091400568
:1024C000B09141050196A11DB11D80933E059093E9
:1024D0003F05A0934005B0934105BF91AF919F91F7
:1024E0008F913F912F911F901FBE1F90189526E846
:1024F000230F0296A11DB11DD3CF1F920F920FB6CD
:102500000F9211240F931F932F933F934F935F9339
:102510006F937F938F939F93AF93BF93EF93FF93AB
:10252000CF93DF9300D000D0CDB7DEB780914B05BD
:1025300090914C05A0914D05B0914E05009721E07A
:10254000A207B10508F098C180916F008D7F80933C
:102550006F00E0914805F0914905309709F43DC1BD
:102560004091510150915201609153017091540179
:102570004115510561057105B9F1809141019091B5
:102580004201A0914301B0914401038D148D258D2A
:10259000368D801B910BA20BB30B8093410190935E
:1025A0004201A0934301B0934401B7FF1DC003A5AE
:1025B00014A525A536A5800F911FA21FB31F8093D8
:1025C000410190934201A0934301B09344015B9A6F
:1025D00041505109610971094093510150935201D1
:1025E00060935301709354014091550150915601ED
:1025F00060915701709158014115510561057105B0
:10260000B9F18091450190914601A0914701B091A7
:102610004801078D10A121A132A1801B910BA20BB3
:10262000B30B8093450190934601A0934701B0936B
:102630004801B7FF1DC003A514A525A536A5800F29
:10264000911FA21FB31F8093450190934601A09351
:102650004701B09348015D9A4150510961097109E0
:102660004093550150935601609357017093580160
:102670004091590150915A0160915B0170915C0148
:102680004115510561057105B1F1809149019091A4
:102690004A01A0914B01B0914C0103A114A125A1C5
:1026A00036A1801B910BA20BB30B80934901909331
:1026B0004A01A0934B01B0934C01B7FF1CC003A586
:1026C00014A525A536A5800F911FA21FB31F8093C7
:1026D000490190934A01A0934B01B0934C014150A2
:1026E0005109610971094093590150935A0160934E
:1026F0005B0170935C0140915D0150915E016091BE
:102700005F01709160014115510561057105B1F1DD
:1027100080914D0190914E01A0914F01B0915001D7
:1027200007A110A521A532A5801B910BA20BB30B0D
:1027300080934D0190934E01A0934F01B0935001AF
:10274000B7FF1CC003A514A525A536A5800F911FB2
:10275000A21FB31F80934D0190934E01A0934F0190
:10276000B0935001415051096109710940935D01D5
:1027700050935E0160935F0170936001DF01A85A7E
:10278000BF4FAC9184E0A89FD0011124AF5ABE4F37
:102790008D919D910D90BC91A02D892B8A2B8B2B17
:1027A00079F080916101882309F450C087A990AD28
:1027B000A1ADB2AD181619061A061B060CF446C0D8
:1027C000818D8D7F818F818D8460818FE95AFF4F4C
:1027D0008081815080835B985D98E0914805F091FD
:1027E0004905309719F0818D81FD17C0809147050B
:1027F00090914A058917D9F18730B8F58F5F80939A
:102800004705ABE58A9FC001112485539E4F9093E5
:102810004905809348050E94BA040F900F900F90CD
:102820000F90DF91CF91FF91EF91BF91AF919F9169
:102830008F917F916F915F914F913F912F911F9158
:102840000F910F900FBE0F901F9018951092420598
:1028500083A994A9A5A9B6A989839A83AB83BC83CC
:10286000BC01CD010E941701B6CF80E0C8CF109205
:10287000490510924805D1CFAC01BD0161507109E5
:1028800040934B0550934C0560934D0570934E0556
:102890004115510521E06207710558F480918800C7
:1028A00090918900480F591F5093890040938800E8
:1028B000B4CF403157426140710508F0AECF20914E
:1028C000880030918900205137423093890020934D
:1028D0008800805F984DA109B10980934B059093C2
:1028E0004C05A0934D05B0934E0597CF1F920F92C4
:1028F0000FB60F9211244F925F926F927F928F9238
:102900009F92AF92BF92CF92DF92EF92FF920F937E
:102910001F932F933F934F935F936F937F938F9367
:102920009F93AF93BF93EF93FF93CF93DF93CDB775
:10293000DEB72697DEBFCDBF80918A0090918B00D5
:10294000935890938B0080938A008091350592E094
:10295000980F9A3008F0BEC09093350580913805E5
:10296000811191C081E08093380578948FB7F894F5
:1029700020914805309149053E832D838FBF80917A
:102980003605909137052817390751F010926301E9
:10299000109264011092620130933705209336053E
:1029A0008D819E81892B09F46CC08FB7F8940D81BD
:1029B0001E81095A1F4FD801BC902D813E81285A93
:1029C0003F4FD901EC91B4E0EB9FF0011124EF5A95
:1029D000FE4F40815181628173818FBFED81FE8105
:1029E00083A594A5A5A5B6A5841B950BA60BB70B2F
:1029F000C3ACD4ACE5ACF6ACC816D906EA06FB0607
:102A000008F487C0E15BFF4FC080D180E280F38093
:102A1000C80ED91EEA1EFB1ED901EC91B4E0EB9F53
:102A2000F0011124E055FE4FC114D104E104F1047A
:102A300009F09EC04591559165917491ED81FE819B
:102A4000ED5BFF4F80809180A28033812FB7F89497
:102A5000F8018081B81214C0C401AA2DB32F8417C5
:102A60009507A607B70710F4DB01CA01ED81FE81C7
:102A700083AB94ABA5ABB6ABC7AAD0AEE1AEF2AE1A
:102A80002FBF1092380526960FB6F894DEBF0FBE02
:102A9000CDBFDF91CF91FF91EF91BF91AF919F910A
:102AA0008F917F916F915F914F913F912F911F91E6
:102AB0000F91FF90EF90DF90CF90BF90AF909F90DD
:102AC0008F907F906F905F904F900F900FBE0F9000
:102AD0001F90189588508093350591E090933405A8
:102AE000809133058F5F893118F48093330536CF99
:102AF0001092330590933205809131058F5F8430B9
:102B000018F4809331052ACF109231059093300547
:102B100025CFED81FE81FF96C080D180E280F380D9
:102B20008C159D05AE05BF0568F0ED81FE81ED5A5F
:102B3000FF4FC080D180E280F380C40ED51EE61E18
:102B4000F71E6ACF8FB7F894D8019C91B9120EC0C6
:102B5000ED81FE81ED5BFF4F408151816281738188
:102B6000ED81FE8143AB54AB65AB76AB8FBF89CFB4
:102B70004590559065907490C6010E94DA02DC0180
:102B8000A30192010E947D1D69837A838B839C83BC
:102B9000AB01BC018DE076956795579547958A9571
:102BA000D1F74CCF8F938FB78F939F93EF93FF9372
:102BB00080912E0590912F05891B8F73A9F0E091CC
:102BC0002F05F0E0E251FB4F80818093C600809199
:102BD0002F058F5F8F7380932F05FF91EF919F914A
:102BE0008F918FBF8F9118958091C1008F7D8093B9
:102BF000C100F3CF8F938FB78F939F93EF93FF9382
:102C00008091ED049091EC04891B990B01978F73CF
:102C10009927892BA9F0E091EC04F0E08091C6009F
:102C2000E455FB4F80838091EC048F5F8F7380931A
:102C3000EC04FF91EF919F918F918FBF8F91189529
:102C40008091C600F6CFCDB7DEB7A0970FB6F89447
:102C5000DEBF0FBECDBF85E88093640080E880BFF3
:102C600082E08093C00080E190E09093C500809363
:102C7000C40088E18093C10086E08093C200809107
:102C8000C100806A8093C100579A5F98539A5B98FD
:102C9000529A5A98559A5D98549A5C98109280006E
:102CA00081E08093810020E03DE730938B0020930A
:102CB0008A0094E090936F0093E095BD80936E003E
:102CC0008091930190919401A0919501B09196010A
:102CD000892B8A2B8B2BA1F482E390E0A0E0B0E05B
:102CE0008093BF019093C001A093C101B093C20132
:102CF0008093930190939401A0939501B0939601D2
:102D00008091970190919801892B51F480E091E096
:102D10009093C4018093C30190939801809397018D
:102D20008091990190919A01892B51F480E091E072
:102D30009093C6018093C50190939A018093990165
:102D40007894389A399A3A9A3B9A569A88E690E05B
:102D50000E949B0210E00E94C80281110DC0112345
:102D600021F08CE891E00E949B028091AB048823C3
:102D700031F080FD04C010E00E949C04ECCF8091F3
:102D8000EC049091ED04891B8F73A9F381E080938B
:102D9000AB041091EC048091ED04181B1F7300E04C
:102DA000D9F0E091ED04F0E0E455FB4F0081809113
:102DB000ED048F5F8F738093ED048FE9800F102FE8
:102DC0001F7D8A3148F0102F0A3231F480919D0125
:102DD0008F7880939D011AE280919D01982F9077C2
:102DE00009F052C2E091AA0470EDF72EF10EEE2325
:102DF000A1F029E02F1588F41E3279F0EA3209F4A7
:102E000092C1E554E63148F4F0E0E753F24E0C94F9
:102E1000681D809165018093AD018FEB810F8A3130
:102E200010F01A3261F41093AA0410926501109206
:102E3000660110926701109268011092690139E0F1
:102E40003F1508F4AAC1E0916901FE2FFF77F43025
:102E5000A0F4209165013091660140916701509185
:102E6000680180919E0181FD65C12F3A85E7380791
:102E700081E44807510508F465C190919D01392FFF
:102E8000387093FD05C08091CA0108270093CA01DC
:102E90001A3019F01D3009F06ECF80919C01282F57
:102EA0002370492F4270242B49F4282F2C7731F0BE
:102EB000816080939C0181E08093AD018091CA0183
:102EC0002091C901821711F031117AC597FF54C0C2
:102ED0004091AF015091B0016091B1017091B20188
:102EE0000091830110918401209185013091860128
:102EF000400F511F621F731F4093AF015093B001E9
:102F00006093B1017093B2014091B3015091B4014B
:102F10006091B5017091B60100918701109188010F
:102F20002091890130918A01400F511F621F731F48
:102F30004093B3015093B4016093B5017093B6010F
:102F40004091B7015091B8016091B9017091BA01F7
:102F500000918B0110918C0120918D0130918E0197
:102F6000400F511F621F731F4093B7015093B80168
:102F70006093B9017093BA0120919E018091C701BD
:102F800020FF89C181608093C70190919C01392FF6
:102F90003170332E90FF2EC38091AD018C3109F436
:102FA00052C208F0A4C1843009F42AC208F095C1C5
:102FB000882309F403C2813009F41FC21F928F9342
:102FC0008CE591E09F938F9389E591E09F938F9398
:102FD0000E94EB100F900F900F900F900F900F909A
:102FE00099C1809165018093AE0117CF80919E01B8
:102FF00081FF0DC088E393E60E9401026093AF0158
:103000007093B0018093B1019093B20106CF88EE26
:1030100093E0F2CF80919E0181FF0DC088E393E69B
:103020000E9401026093B3017093B4018093B501D3
:103030009093B601F2CE88EE93E0F2CF80919E019C
:1030400081FF0DC088E393E60E9401026093B701FF
:103050007093B8018093B9019093BA01DECE88EEE7
:1030600093E0F2CF80919E0181FF0DC088E393E64B
:103070000E9401026093BB017093BC018093BD016B
:103080009093BE01CACE88EE93E0F2CF80919E016C
:1030900081FF0DC088E393E60E9401026093BF01A7
:1030A0007093C0018093C1019093C201B6CE81E0BC
:1030B00090E0F2CF8091AE01883621F08D3611F08C
:1030C0008C3869F484E090E00E9401026093A701CB
:1030D0007093A8018093A9019093AA019ECE825873
:1030E000833018F480E094E0EFCF81E090E0ECCF03
:1030F00081E090E00E9401027093AC016093AB010B
:103100008CCE809165018093C80187CE81E090E0EC
:103110000E94010260939F017093A0018093A1011E
:103120009093A2017ACE81E090E00E940102609328
:10313000C90173CE2D3F90E8390792E04907510548
:1031400008F09BCEAAE0B0E00E947D1D698B7A8BCF
:103150008B8B9C8BA12FA053BB0BCD01092E000C98
:10316000AA0BBB0B29893A894B895C89820F931F73
:10317000A41FB51F8093650190936601A09367011A
:10318000B09368018E2F8F7709F477CEFF5FFF77BA
:10319000E078EF2BE093690170CE1B3508F06DCE1F
:1031A0001B3380F41D3209F463C0B0F4183209F403
:1031B0005BC080919D0188601A3209F05ECE8093D9
:1031C0009D015BCEE5ECE10FE03208F056CEF0E079
:1031D000E152F24E0C94681D1E3209F04ECE8091E1
:1031E0006901982F9F7709F048CE8078816049C0A7
:1031F00080919C018C7F816080939C011092AE0134
:103200003CCE80919C018C7F826080939C011092C7
:10321000AD0133CE80919C01846080939C012DCEC2
:1032200080919C018860F9CF80919C018061F5CFED
:1032300080919C018062F1CF80919C018064EDCFF0
:1032400080919C018068E9CF80919D018160B7CF1A
:1032500080919D018260B3CF80919D018460AFCF4A
:1032600080919D018061ABCF80919D018062A7CF4D
:103270001092650110926601109267011092680128
:1032800080E880936901F9CD85FFF7CD193209F007
:10329000F4CD8F7D94CF8E7F8093C70197FF75CE3D
:1032A0008091BB019091BC01A091BD01B091BE0184
:1032B00040918F0150919001609191017091920124
:1032C000840F951FA61FB71F8093BB019093BC016D
:1032D000A093BD01B093BE0158CE843109F4ADC0B6
:1032E000853109F06BCE80919E018D7FA9C08C3510
:1032F00009F4B2C050F48A3509F4A8C08B3509F03E
:103300005DCE80919D018068A4C09FE5980F9230AA
:1033100008F054CE80919D0182FF13C080919F01DF
:103320009091A001A091A101B091A2010196A11DCF
:10333000B11D8093A3019093A401A093A501B09324
:10334000A6011092CA011092C90110929C018091AD
:103350009D01807880939D011092AA0410926501CE
:103360001092660110926701109268011092690133
:1033700087FF44C31092B7011092B8011092B901AF
:103380001092BA011092B3011092B4011092B501DB
:103390001092B6011092AF011092B0011092B101DB
:1033A0001092B2011092BB011092BC011092BD01AB
:1033B0001092BE011092AB0411E0DECCC090BF01B0
:1033C000D090C001E090C101F090C20180EE9EE279
:1033D000A0E0B0E08093BF019093C001A093C10131
:1033E000B093C2010E942705C092BF01D092C001D4
:1033F000E092C101F092C2018DCF0E9427058ACFD1
:103400000E94B00480919D0180FF84CF8091AB0128
:103410009091AC01892B09F47DCF0E949C0486EE2B
:1034200093E00E94B0028091AB019091AC010197B2
:103430009093AC018093AB01E9CF80919E018260B3
:1034400080939E0167CF0E94B00464CF80919D015C
:103450008F7780939D015ECF0E94B00480919C0184
:10346000982F947082FF11C04091AF015091B0012C
:103470006091B1017091B201409383015093840136
:103480006093850170938601932D83FF11C0409155
:10349000B3015091B4016091B5017091B6014093B0
:1034A0008701509388016093890170938A01932D5D
:1034B00084FF11C04091B7015091B8016091B901EA
:1034C0007091BA0140938B0150938C0160938D01F0
:1034D00070938E01932D85FF4AC08091BB0190911E
:1034E000BC01A091BD01B091BE0180938F0190936A
:1034F0009001A0939101B09392016AE671E083E894
:1035000091E00E94EB03ECEEF1E085919591A5919D
:10351000B491898B9A8BAB8BBC8BECEDF1E0259150
:1035200035914591549180918F0190919001A09196
:103530009101B09192018D8B9E8BAF8BB88F60E41F
:10354000A62E62E4B62E6FE0C62ED12CE988FA884A
:103550000B891C89BC01CD010E9447036093760151
:10356000709377018093780190937901D3CE911174
:10357000C4CF1092BB011092BC011092BD011092F9
:10358000BE0110928F011092900110929101109241
:1035900092011092B7011092B8011092B9011092E5
:1035A000BA0110928B0110928C0110928D01109231
:1035B0008E011092B3011092B4011092B5011092D5
:1035C000B601109287011092880110928901109221
:1035D0008A011092AF011092B0011092B1011092C5
:1035E000B201109283011092840110928501109211
:1035F000860183CF91FF8ECE8091AE01823709F490
:1036000074C010F5833509F45EC088F4823509F47E
:1036100056C08335A1F0982F9D7F89F40E94B00495
:103620001092430585E591E00E949B0273CE8E3691
:1036300009F470CE803709F44AC0843579F31F92BB
:103640008F9382E990E0BECC803F09F45AC168F5BF
:10365000833709F447C18C3D91F797FF5BCE80918A
:10366000A7019091A801A091A901B091AA0126E01B
:10367000880F991FAA1FBB1F2A95D1F79C01AD0186
:10368000245F3F4F4F4F5F4F298B3A8B4B8B5C8BA7
:10369000CA01B90129E130E040E050E00E94491D33
:1036A0003093C6012093C50135CE8A3F41F697FF7E
:1036B00031CE8091A70181117EC15F982BCE809180
:1036C0009E018E7FBDCE80919E018160B9CE109209
:1036D0006F0080914A05809347051092490510922A
:1036E000480510924305F894FFCF809048059090CC
:1036F00049058114910409F4E9C0A1E5B1E0BE8B4C
:10370000AD8B32E7432E30E0532EFE0131963F0160
:10371000FA8BE98BAD89BE892D913D914D915D91DB
:10372000BE8BAD8B298F3A8F4B8F5C8FF201A590AA
:10373000B590C590D49060E472E48FE090E0A6016B
:1037400095010E94271D6D8F7E8F8F8F98A37B011F
:103750008C01698D7A8D8B8D9C8D0E9447037B0136
:103760008C01632DC4010E948104A82F880FBB0B1C
:103770009701A8010E94881D698F7A8F8B8F9C8F7B
:10378000E989FA896193719381939193FA8BE98B1B
:103790003394F4E04F0E511C24E03212BBCFF401FD
:1037A00028E231E0A401405F5F4F219031904190C9
:1037B0005190D301CD90DD90ED90FD903D012C18FE
:1037C0003D084E085F08D9012D923D924D925D92C1
:1037D0009D014E175F0749F7F40180899189A289FD
:1037E000B3898093380190933901A0933A01B09343
:1037F0003B0180913B018F9380913A018F9380919F
:1038000039018F93809138018F93809137018F9385
:10381000809136018F93809135018F93809134018F
:103820008F93809133018F93809132018F93809198
:1038300031018F93809130018F9380912F018F936D
:1038400080912E018F9380912D018F9380912C0177
:103850008F9380912B018F9380912A018F93809178
:1038600029018F93809128018F9386E391E09F93A4
:103870008F9389E591E09F938F930E94EB100FB691
:10388000F894DEBF0FBECDBF892809F443CD0E9456
:10389000C802811125C080E21F928F9380914A0552
:1038A0001F928F93809147051F928F9382E890E03B
:1038B0009F938F9389E591E09F938F930E94EB10E4
:1038C0000FB6F894DEBF0FBECDBF24CD89E1E3E88B
:1038D000F1E0A8E2B1E001900D928A95E1F789CF7D
:1038E00086E4DACF84EA90E09F938F9389E591E0B4
:1038F0009F938F930E94EB100F900F900F900F905B
:1039000009CD97FF07CD8091A7019091A8019093D1
:10391000A9048093A8044090A4045090A50460904A
:10392000A6047090A70430E2430E33E0531E611CDE
:10393000711C0E946B02698B7A8B8B8B9C8B64153C
:1039400075058605970538F3912C812C282D81E08B
:1039500090E0082C02C0880F991F0A94E2F740916A
:10396000A8045091A90484239523892B91F080FC0D
:10397000409A21FD419A22FD429A23FD439A5E9A84
:1039800085E090E00E94B0025E984098419842988D
:1039900043980E946B026093A4047093A5048093E3
:1039A000A6049093A7044FEF841A940A5CE085164E
:1039B000910461F6AFCC813009F0ACCC5F9AAACC0F
:1039C0001F928F938091A6018F938091A5018F9371
:1039D0008091A4018F938091A3018F938EE691E053
:1039E0009F938F9389E591E09F938F930E94EB10B3
:1039F0000FB6F894DEBF0FBECDBFA3CC80919E0161
:103A000080FDD0CCD7CCDB018F939F930E947D1D8E
:103A1000BF91AF91A29F800D911DA39F900DB29F6A
:103A2000900D11240895AA1BBB1B51E107C0AA1FCA
:103A3000BB1FA617B70710F0A61BB70B881F991F4F
:103A40005A95A9F780959095BC01CD010895A1E202
:103A50001A2EAA1BBB1BFD010DC0AA1FBB1FEE1F08
:103A6000FF1FA217B307E407F50720F0A21BB30B53
:103A7000E40BF50B661F771F881F991F1A9469F7CF
:103A800060957095809590959B01AC01BD01CF012B
:103A90000895052E97FB1EF400940E94601D57FDAB
:103AA00007D00E94271D07FC03D04EF40C94601D24
:103AB00050954095309521953F4F4F4F5F4F08955A
:103AC00090958095709561957F4F8F4F9F4F08958A
:103AD000EE0FFF1F0590F491E02D0994A29FB00115
:103AE000B39FC001A39F700D811D1124911DB29F32
:103AF000700D811D1124911D08950E946E1DA59FBA
:103B0000900DB49F900DA49F800D911D11240895D8
:103B1000B7FF0C947D1D0E947D1D821B930B0895A1
:103B20002F923F924F925F926F927F928F929F92CD
:103B3000AF92BF92CF92DF92EF92FF920F931F93BB
:103B4000CF93DF93CDB7DEB7CA1BDB0B0FB6F8946C
:103B5000DEBF0FBECDBF09942A88398848885F84AC
:103B60006E847D848C849B84AA84B984C884DF801D
:103B7000EE80FD800C811B81AA81B981CE0FD11D01
:103B80000FB6F894DEBF0FBECDBFED010895F894D7
:103B9000FFCF3218461809170D170D170D170D17FF
:103BA0000D17F11786180D1778180D170D175A18DD
:103BB00081180D170D170D17F6170A181E18301952
:103BC0003D173D173D173D173D173D173D173D1755
:103BD0003D1718191C19F8183D173D173D173D17CB
:103BE0003D1701192C193D1724193D173D172019B0
:0E3BF00028193D173D173D170A191019141911
:103BFE00010000000A00000064000000E80300005D
:103C0E0010270000A086010040420F008096980009
:083C1E0000E1F50500CA9A3B24
:00000001FF
